{"abi":[{"type":"constructor","inputs":[{"name":"libraryAddress","type":"address","internalType":"address"}],"stateMutability":"nonpayable"},{"type":"fallback","stateMutability":"payable"},{"type":"receive","stateMutability":"payable"},{"type":"function","name":"UPGRADE_INTERFACE_VERSION","inputs":[],"outputs":[{"name":"","type":"string","internalType":"string"}],"stateMutability":"view"},{"type":"function","name":"ado_type","inputs":[],"outputs":[{"name":"","type":"tuple","internalType":"struct IContractBase.AdoTypeResponse","components":[{"name":"ado_type","type":"string","internalType":"string"}]}],"stateMutability":"view"},{"type":"function","name":"ampReceive","inputs":[{"name":"packet","type":"tuple","internalType":"struct AmpMsgLib.AmpPkt","components":[{"name":"message","type":"bytes","internalType":"bytes"},{"name":"funds","type":"uint256","internalType":"uint256"},{"name":"ctx","type":"tuple","internalType":"struct AmpMsgLib.AmpPktCtx","components":[{"name":"origin","type":"address","internalType":"address"},{"name":"previous_sender","type":"address","internalType":"address"}]}]}],"outputs":[],"stateMutability":"payable"},{"type":"function","name":"batch_messages","inputs":[{"name":"messages","type":"tuple[]","internalType":"struct IKernelContract.BatchMessage[]","components":[{"name":"data","type":"bytes","internalType":"bytes"},{"name":"message_type","type":"uint8","internalType":"enum IKernelContract.BatchMessageType"}]}],"outputs":[],"stateMutability":"nonpayable"},{"type":"function","name":"chain_name","inputs":[],"outputs":[{"name":"","type":"string","internalType":"string"}],"stateMutability":"view"},{"type":"function","name":"get_env","inputs":[{"name":"params","type":"tuple","internalType":"struct IKernelContract.GetEnvParams","components":[{"name":"key","type":"string","internalType":"string"}]}],"outputs":[{"name":"","type":"string","internalType":"string"}],"stateMutability":"view"},{"type":"function","name":"get_key_address","inputs":[{"name":"params","type":"tuple","internalType":"struct IKernelContract.GetKeyAddressParams","components":[{"name":"key","type":"string","internalType":"string"}]}],"outputs":[{"name":"","type":"address","internalType":"address"}],"stateMutability":"view"},{"type":"function","name":"implementation","inputs":[],"outputs":[{"name":"","type":"address","internalType":"address"}],"stateMutability":"view"},{"type":"function","name":"init_empty_slot","inputs":[{"name":"proxy","type":"address","internalType":"address"}],"outputs":[],"stateMutability":"nonpayable"},{"type":"function","name":"initialize","inputs":[{"name":"params","type":"tuple","internalType":"struct IKernelContract.KernelInitParams","components":[{"name":"owner","type":"address","internalType":"address"},{"name":"chain_name","type":"string","internalType":"string"}]}],"outputs":[],"stateMutability":"nonpayable"},{"type":"function","name":"instantiate_ado","inputs":[{"name":"implementation","type":"address","internalType":"address"},{"name":"instantiate_msg","type":"bytes","internalType":"bytes"}],"outputs":[{"name":"","type":"address","internalType":"address"}],"stateMutability":"nonpayable"},{"type":"function","name":"instantiate_ado","inputs":[{"name":"params","type":"tuple","internalType":"struct IKernelContract.InstantiateAdoParam","components":[{"name":"ado_type","type":"string","internalType":"string"}]},{"name":"instantiate_msg","type":"bytes","internalType":"bytes"}],"outputs":[{"name":"","type":"address","internalType":"address"}],"stateMutability":"nonpayable"},{"type":"function","name":"instantiate_empty_slot","inputs":[{"name":"params","type":"tuple","internalType":"struct IKernelContract.InstantiateAdoParam","components":[{"name":"ado_type","type":"string","internalType":"string"}]},{"name":"instantiate_msg","type":"bytes","internalType":"bytes"}],"outputs":[{"name":"","type":"address","internalType":"address"}],"stateMutability":"nonpayable"},{"type":"function","name":"is_verified","inputs":[{"name":"contract_address","type":"address","internalType":"address"}],"outputs":[{"name":"","type":"bool","internalType":"bool"}],"stateMutability":"view"},{"type":"function","name":"migrate_ado","inputs":[{"name":"ado_address","type":"address","internalType":"address"},{"name":"new_ado_type","type":"string","internalType":"string"},{"name":"new_ado_version","type":"string","internalType":"string"},{"name":"migrate_msg","type":"bytes","internalType":"bytes"}],"outputs":[{"name":"","type":"address","internalType":"address"}],"stateMutability":"nonpayable"},{"type":"function","name":"proxiableUUID","inputs":[],"outputs":[{"name":"","type":"bytes32","internalType":"bytes32"}],"stateMutability":"view"},{"type":"function","name":"send","inputs":[{"name":"amp_msg","type":"tuple","internalType":"struct AmpMsgLib.AmpMsg","components":[{"name":"recipient","type":"string","internalType":"string"},{"name":"message","type":"bytes","internalType":"bytes"},{"name":"funds","type":"uint256","internalType":"uint256"},{"name":"config","type":"tuple","internalType":"struct AmpMsgLib.AmpMsgConfig","components":[{"name":"exit_at_error","type":"bool","internalType":"bool"}]}]}],"outputs":[],"stateMutability":"nonpayable"},{"type":"function","name":"set_env","inputs":[{"name":"params","type":"tuple","internalType":"struct IKernelContract.SetEnvParams","components":[{"name":"key","type":"string","internalType":"string"},{"name":"value","type":"string","internalType":"string"}]}],"outputs":[],"stateMutability":"nonpayable"},{"type":"function","name":"tmp_deployer","inputs":[{"name":"contract_address","type":"address","internalType":"address"}],"outputs":[{"name":"","type":"address","internalType":"address"}],"stateMutability":"view"},{"type":"function","name":"unset_env","inputs":[{"name":"params","type":"tuple","internalType":"struct IKernelContract.UnsetEnvParams","components":[{"name":"key","type":"string","internalType":"string"}]}],"outputs":[],"stateMutability":"nonpayable"},{"type":"function","name":"update_chain_name","inputs":[{"name":"params","type":"tuple","internalType":"struct IKernelContract.UpdateChainNameParams","components":[{"name":"chain_name","type":"string","internalType":"string"}]}],"outputs":[],"stateMutability":"nonpayable"},{"type":"function","name":"upgradeToAndCall","inputs":[{"name":"newImplementation","type":"address","internalType":"address"},{"name":"data","type":"bytes","internalType":"bytes"}],"outputs":[],"stateMutability":"payable"},{"type":"function","name":"upsert_key_address","inputs":[{"name":"params","type":"tuple","internalType":"struct IKernelContract.UpsertKeyAddressParams","components":[{"name":"key","type":"string","internalType":"string"},{"name":"value","type":"address","internalType":"address"}]}],"outputs":[],"stateMutability":"nonpayable"},{"type":"function","name":"version","inputs":[],"outputs":[{"name":"","type":"tuple","internalType":"struct IContractBase.VersionResponse","components":[{"name":"version","type":"string","internalType":"string"}]}],"stateMutability":"view"},{"type":"event","name":"AdoDefaultInitialized","inputs":[{"name":"adoType","type":"string","indexed":true,"internalType":"string"},{"name":"version","type":"string","indexed":true,"internalType":"string"},{"name":"adoOwner","type":"address","indexed":true,"internalType":"address"}],"anonymous":false},{"type":"event","name":"Initialized","inputs":[{"name":"version","type":"uint64","indexed":false,"internalType":"uint64"}],"anonymous":false},{"type":"event","name":"Upgraded","inputs":[{"name":"implementation","type":"address","indexed":true,"internalType":"address"}],"anonymous":false},{"type":"error","name":"AddressEmptyCode","inputs":[{"name":"target","type":"address","internalType":"address"}]},{"type":"error","name":"ERC1967InvalidImplementation","inputs":[{"name":"implementation","type":"address","internalType":"address"}]},{"type":"error","name":"ERC1967NonPayable","inputs":[]},{"type":"error","name":"FailedCall","inputs":[]},{"type":"error","name":"InvalidInitialization","inputs":[]},{"type":"error","name":"InvalidShortString","inputs":[]},{"type":"error","name":"NotInitializing","inputs":[]},{"type":"error","name":"StringTooLong","inputs":[{"name":"str","type":"string","internalType":"string"}]},{"type":"error","name":"UUPSUnauthorizedCallContext","inputs":[]},{"type":"error","name":"UUPSUnsupportedProxiableUUID","inputs":[{"name":"slot","type":"bytes32","internalType":"bytes32"}]},{"type":"error","name":"Unauthorized","inputs":[]}],"bytecode":{"object":"0x61012080604052346102675761002b90612edc8038038091610021828561026b565b83398101906102a2565b60405161003960408261026b565b60068152651ad95c9b995b60d21b60208201526040519061005b60408361026b565b60058252640302e312e360dc1b6020830152306080526040519061008060608361026b565b602182527f616e64726f6d6564612e73746f726167652e7374642e61646f2e64656661756c6020830152601d60fa1b604083015260206100ff604051936100c860408661026b565b60058552640302e302e360dc1b8386015261011160405195869384936327a0d66960e01b85526040600486015260448501906102c1565b838103600319016024850152906102c1565b03816001600160a01b0388165afa93841561025c5761014994610141935f9161022d575b5060a05260c0526102e5565b60e0526102e5565b610100525f516020612ebc5f395f51905f525460ff8160401c1661021e576002600160401b03196001600160401b038216016101c8575b604051612b82908161033a82396080518181816106540152610886015260a0518161148c015260c05181505060e05181818161069701526111ab015261010051816119dd0152f35b6001600160401b0319166001600160401b039081175f516020612ebc5f395f51905f52556040519081527fc7f505b2f371ae2175ee4913f4499e1f2633a7b5936321eed1cdaeb6115181d290602090a15f610180565b63f92ee8a960e01b5f5260045ffd5b61024f915060203d602011610255575b610247818361026b565b8101906102a2565b5f610135565b503d61023d565b6040513d5f823e3d90fd5b5f80fd5b601f909101601f19168101906001600160401b0382119082101761028e57604052565b634e487b7160e01b5f52604160045260245ffd5b9081602091031261026757516001600160a01b03811681036102675790565b805180835260209291819084018484015e5f828201840152601f01601f1916010190565b601f815111610310576020815191015160208210610301571790565b5f198260200360031b1b161790565b60405163305a27a960e01b8152602060048201529081906103359060248301906102c1565b0390fdfe60806040526004361015610015575b36611e9257005b5f3560e01c8063029617f214610194578063045ffa791461018f5780633744dd831461018a5780634461dd0c14610185578063470e6c4c146101805780634f1ef2861461017b5780634fc8b0fe1461017657806352d1902d1461017157806354fd4d501461016c578063568eb6bb146101675780635c60da1b146101625780636039c55b1461015d57806362ca2d78146101585780638d980970146101535780639567e7e31461014e5780639d0978cd14610149578063ad3cb1cc14610144578063c1ada27f1461013f578063c55c2b931461013a578063d891adaf14610135578063e031428d14610130578063ebebcab71461012b578063eeb339f8146101265763fd7687ef0361000e57611139565b611101565b611041565b611020565b610f8f565b610f10565b610e2d565b610de6565b610d38565b610ca4565b610c1a565b610aed565b610a1a565b6109e6565b61094a565b6108cb565b610874565b61077d565b610641565b61058d565b610481565b610403565b6102c1565b6101df565b5f9103126101a357565b5f80fd5b805180835260209291819084018484015e5f828201840152601f01601f1916010190565b9060206101dc9281815201906101a7565b90565b346101a3575f3660031901126101a3576101f7611f8d565b604051905f9080549061020982611152565b80855291600181169081156102815750600114610241575b61023d8461023181860382610352565b604051918291826101cb565b0390f35b5f90815260208120939250905b8082106102675750909150810160200161023182610221565b91926001816020925483858801015201910190929161024e565b60ff191660208087019190915292151560051b850190920192506102319150839050610221565b60406101dc9260208352519160208082015201906101a7565b346101a3575f3660031901126101a35761023d6102dc61119d565b604051918291826102a8565b634e487b7160e01b5f52604160045260245ffd5b604081019081106001600160401b0382111761031757604052565b6102e8565b602081019081106001600160401b0382111761031757604052565b608081019081106001600160401b0382111761031757604052565b90601f801991011681019081106001600160401b0382111761031757604052565b60405190610382604083610352565b565b60405190610382606083610352565b6001600160a01b038116036101a357565b6001600160401b03811161031757601f01601f191660200190565b81601f820112156101a3576020813591016103d9826103a4565b926103e76040519485610352565b828452828201116101a357815f92602092838601378301015290565b346101a35760203660031901126101a3576004356001600160401b0381116101a357604060031982360301126101a35760405161043f816102fc565b816004013561044d81610393565b815260248201356001600160401b0381116101a35761047f92600461047592369201016103bf565b60208201526111e1565b005b346101a35760203660031901126101a35760043561049e81610393565b6104bb60ff6104b4336104af612069565b611576565b5416611532565b60026104c5612069565b016104d08282611576565b604051905f908054906104e282611152565b80855291600181169081156105665750600114610529575b61047f61052487876104af88610512818a0382610352565b61051e8151151561158b565b836120fc565b6115eb565b5f908152602081209092505b81831061054c57505081016020016104af826104fa565b600181602092949394548385880101520191019190610535565b60ff191660208087019190915292151560051b850190920192506104af91508390506104fa565b346101a35760203660031901126101a3576004356001600160401b0381116101a357604060031982360301126101a3576040516105c9816102fc565b81600401356001600160401b0381116101a35761047f926105f2602492600436918401016103bf565b835201356105ff81610393565b6020820152611645565b9060406003198301126101a35760043561062281610393565b91602435906001600160401b0382116101a3576101dc916004016103bf565b61064a36610609565b6001600160a01b037f00000000000000000000000000000000000000000000000000000000000000001630811490811561075b575b5061074c57813b156107125761047f916106c96106bb7f0000000000000000000000000000000000000000000000000000000000000000612015565b6106c3612297565b90612716565b15610704576106ff6106f86106ec6106df6127ba565b546001600160a01b031690565b6001600160a01b031690565b3314611630565b6122bb565b6106ff6106f86106ec61256c565b60405162461bcd60e51b81526020600482015260126024820152712727aa2fa4a6a82622a6a2a72a20aa24a7a760711b6044820152606490fd5b63703e46dd60e11b5f5260045ffd5b5f516020612b0d5f395f51905f52546001600160a01b0316141590505f61067f565b346101a35760203660031901126101a3576004356001600160401b0381116101a357366023820112156101a35780600401356001600160401b038111610317578060051b91604051916107d36020850184610352565b825260246020830193820101903682116101a35760248101935b8285106107fd5761047f846118ea565b84356001600160401b0381116101a357820190604060231983360301126101a3576040519161082b836102fc565b6024810135906001600160401b0382116101a357610851604492602436918401016103bf565b845201359060028210156101a357826020939284809401528152019401936107ed565b346101a3575f3660031901126101a3577f00000000000000000000000000000000000000000000000000000000000000006001600160a01b0316300361074c5760206040515f516020612b0d5f395f51905f528152f35b346101a3575f3660031901126101a35761023d6102dc6119cf565b9190916020818403126101a357604051906109008261031c565b819381356001600160401b0381116101a35761091c92016103bf565b9052565b60206003198201126101a357600435906001600160401b0382116101a3576101dc916004016108e6565b346101a35761096d61095b36610920565b6001610965611f8d565b0190516116b4565b604051905f9080549061097f82611152565b808552916001811690811561028157506001146109a65761023d8461023181860382610352565b5f90815260208120939250905b8082106109cc5750909150810160200161023182610221565b9192600181602092548385880101520191019092916109b3565b346101a3575f3660031901126101a3575f516020612b0d5f395f51905f52546040516001600160a01b039091168152602090f35b346101a35760203660031901126101a357600435610a3781610393565b6001600160a01b0390610a54906001610a4e612069565b01611576565b54168015610a72576040516001600160a01b03919091168152602090f35b60405162461bcd60e51b815260206004820152602260248201527f4b65726e656c436f6e74726163743a206465706c6f796572206e6f7420666f756044820152611b9960f21b6064820152608490fd5b9060406003198301126101a3576004356001600160401b0381116101a35782610622916004016108e6565b346101a357610b1a610b1f610b0136610ac2565b9290610b1460ff6104b4336104af612069565b5161236f565b61243b565b610b2d816002610a4e612069565b8251926001600160401b03841161031757610b5284610b4c8454611152565b84611323565b602090601f8511600114610bad579380610b859261023d965f92610ba2575b50508160011b915f199060031b1c19161790565b90555b6040516001600160a01b0390911681529081906020820190565b015190505f80610b71565b90601f19851691610bc1845f5260205f2090565b925f5b818110610c02575091600193918761023d989410610bea575b505050811b019055610b88565b01515f1960f88460031b161c191690555f8080610bdd565b92936020600181928786015181550195019301610bc4565b346101a35760803660031901126101a357600435610c3781610393565b6024356001600160401b0381116101a357610c569036906004016103bf565b906044356001600160401b0381116101a357610c769036906004016103bf565b90606435916001600160401b0383116101a35761023d93610c9e610b889436906004016103bf565b92611a92565b346101a3576020610cee610cf5610cba36610609565b9290610b1a6001600160a01b036040610cd2366121d3565b015151166001600160a01b03610ce66127ba565b541614611630565b91826120fc565b6040516001600160a01b039091168152f35b801515036101a357565b91908260209103126101a357604051610d298161031c565b913582610d3582610d07565b52565b346101a35760203660031901126101a3576004356001600160401b0381116101a357608060031982360301126101a357604051610d7481610337565b81600401356001600160401b0381116101a357610d9790600436918501016103bf565b815260248201356001600160401b0381116101a35761047f92610dc3610ddc92600436918401016103bf565b6020840152604481013560408401526064369101610d11565b6060820152611bf7565b346101a3575f3660031901126101a35761023d604051610e07604082610352565b60058152640352e302e360dc1b60208201526040519182916020835260208301906101a7565b346101a357610e3b36610920565b610e516001600160a01b036040610cd2366121d3565b610e59611f8d565b90519081516001600160401b03811161031757610e7a81610b4c8454611152565b602092601f8211600114610ead57610ea9929382915f92610ba25750508160011b915f199060031b1c19161790565b9055005b601f19821693610ec0845f5260205f2090565b915f5b868110610ef85750836001959610610ee0575b505050811b019055005b01515f1960f88460031b161c191690555f8080610ed6565b91926020600181928685015181550194019201610ec3565b346101a357610f37610f2136610920565b61095b6001600160a01b036040610cd2366121d3565b610f418154611152565b9081610f4957005b601f8211600114610f59575f9055005b610f7f61047f926001601f610f71855f5260205f2090565b920160051c8201910161130d565b5f81815260208120918190559055565b346101a35760203660031901126101a3576004356001600160401b0381116101a357604060031982360301126101a357604051610fcb816102fc565b81600401356001600160401b0381116101a357610fee90600436918501016103bf565b815260248201356001600160401b0381116101a35761047f92600461101692369201016103bf565b6020820152611d3e565b346101a3576020610b1a610cf5610cee61103936610ac2565b93905161236f565b60203660031901126101a3576004356001600160401b0381116101a3578060040190608060031982360301126101a3576001600160a01b0361108161256c565b1633036110cf575f6110ae81926110a861109b8680611e1a565b9190926044369101611e4c565b91612584565b602081519101305af46110bf611bc8565b90156110c757005b602081519101fd5b60405162461bcd60e51b815260206004820152600a6024820152691393d517d2d15493915360b21b6044820152606490fd5b346101a35760203660031901126101a357602060ff61112d60043561112581610393565b6104af612069565b54166040519015158152f35b346101a3576020610cf561114c36610920565b516125fd565b90600182811c92168015611180575b602083101461116c57565b634e487b7160e01b5f52602260045260245ffd5b91607f1691611161565b604051906111978261031c565b60608252565b6111a561118a565b506111cf7f0000000000000000000000000000000000000000000000000000000000000000612015565b604051906111dc8261031c565b815290565b5f516020612b2d5f395f51905f5254906001600160401b03611212604084901c60ff1615936001600160401b031690565b1680159081611305575b60011490816112fb575b1590816112f2575b506112e357611271908261126860016001600160401b03195f516020612b2d5f395f51905f525416175f516020612b2d5f395f51905f5255565b6112bf5761141f565b61127757565b5f516020612b2d5f395f51905f52805460ff60401b19169055604051600181527fc7f505b2f371ae2175ee4913f4499e1f2633a7b5936321eed1cdaeb6115181d290602090a1565b5f516020612b2d5f395f51905f52805460ff60401b1916600160401b17905561141f565b63f92ee8a960e01b5f5260045ffd5b9050155f61122e565b303b159150611226565b83915061121c565b818110611318575050565b5f815560010161130d565b9190601f811161133257505050565b610382925f5260205f20906020601f840160051c8301931061135c575b601f0160051c019061130d565b909150819061134f565b91909182516001600160401b0381116103175761138781610b4c8454611152565b6020601f82116001146113ba5781906113b69394955f92610ba25750508160011b915f199060031b1c19161790565b9055565b601f198216906113cd845f5260205f2090565b915f5b818110611407575095836001959697106113ef575b505050811b019055565b01515f1960f88460031b161c191690555f80806113e5565b9192602060018192868b0151815501940192016113d0565b805160405191906001600160a01b03166114388361031c565b825260ff5f516020612b2d5f395f51905f525460401c161561152357610382916114b060018060a01b038251166040519063a74e5ca560e01b602083015260248201526024815261148a604482610352565b7f000000000000000000000000000000000000000000000000000000000000000061279d565b506114b961119d565b516114e06114da6114da6114cb6119cf565b5194516001600160a01b031690565b92612053565b6001600160a01b03909116917f542e3741e19b27af9739b3c2fe67ae9fececcd04a33dcb48e178f0f664e502f65f80a4602061151a611f8d565b91015190611366565b631afcd79f60e31b5f5260045ffd5b1561153957565b60405162461bcd60e51b81526020600482015260156024820152741393d517d59154925192515117d0d3d395149050d5605a1b6044820152606490fd5b9060018060a01b03165f5260205260405f2090565b1561159257565b60405162461bcd60e51b815260206004820152601d60248201527f496e7374616e7469617465206d657373616765206e6f7420666f756e640000006044820152606490fd5b634e487b7160e01b5f52601160045260245ffd5b6115f58154611152565b90816115ff575050565b601f8211600114611610575f905550565b610f7f61038292825f526001601f60205f20920160051c8201910161130d565b1561163757565b6282b42960e81b5f5260045ffd5b6103829061165f6001600160a01b036040610cd2366121d3565b61168361166a611f8d565b91600260018060a01b03602083015116930190516116b4565b80546001600160a01b0319166001600160a01b03909216919091179055565b805191908290602001825e015f815290565b6020906116c792604051938480936116a2565b9081520301902090565b80518210156116e55760209160051b010190565b634e487b7160e01b5f52603260045260245ffd5b6002111561170357565b634e487b7160e01b5f52602160045260245ffd5b81601f820112156101a357602081519101611731826103a4565b9261173f6040519485610352565b828452828201116101a357815f926020928386015e8301015290565b9190916020818403126101a357604051906117758261031c565b819381516001600160401b0381116101a35761091c9201611717565b6020818303126101a3578051906001600160401b0382116101a357016040818303126101a357604051916117c4836102fc565b81516001600160401b0381116101a357816117e091840161175b565b835260208201516001600160401b0381116101a3576117ff9201611717565b602082015290565b91908260209103126101a35760405161181f8161031c565b915182610d3582610d07565b6020818303126101a3578051906001600160401b0382116101a35701906020828203126101a3576040519161185f8361031c565b8051906001600160401b0382116101a357016080818303126101a3576040519161188883610337565b81516001600160401b0381116101a357816118a4918401611717565b835260208201516001600160401b0381116101a357826118cb836060936118e09601611717565b60208601526040810151604086015201611807565b6060820152815290565b5f5b81518110156119cb576118ff81836116d1565b5190602082018051611910816116f9565b611919816116f9565b611943575061193d611937600193516020808251830101910161182b565b51611bf7565b016118ec565b60019051611950816116f9565b611959816116f9565b0361198a576119846119776001935160208082518301019101611791565b6020815191015190611e0a565b5061193d565b60405162461bcd60e51b8152602060048201526014602482015273494e56414c49445f4d4553534147455f5459504560601b604482015280606481015b0390fd5b5050565b6119d761118a565b506111cf7f0000000000000000000000000000000000000000000000000000000000000000612015565b906020828203126101a35781516001600160401b0381116101a3576101dc920161175b565b6040513d5f823e3d90fd5b15611a3857565b60405162461bcd60e51b815260206004820152601060248201526f496e76616c69642041444f207479706560801b6044820152606490fd5b6001600160a01b0390911681526040602082018190526101dc929101906101a7565b60405163045ffa7960e01b815290936001600160a01b038516939092905f83600481885afa918215611b3b57611ae0611adb82611ae595611aea975f91611b40575b5051612716565b611a31565b61251f565b61236f565b90823b156101a357611b15925f928360405180968195829463278f794360e11b845260048401611a70565b03925af18015611b3b57611b27575090565b80611b355f6101dc93610352565b80610199565b611a26565b611b5c91503d805f833e611b548183610352565b810190611a01565b5f611ad4565b908160209103126101a357516101dc81610393565b80516001600160a01b03908116835260209182015116910152565b6101dc906020815260606040611bb485516080602086015260a08501906101a7565b946020810151828501520151910190611b77565b3d15611bf2573d90611bd9826103a4565b91611be76040519384610352565b82523d5f602084013e565b606090565b611c31906020611c136106ec6106ec611c0e61254b565b6125fd565b825190604051808096819463c92557a760e01b8352600483016101cb565b03915afa918215611b3b575f92611d0d575b50611c62611c5d611c56846104af612069565b5460ff1690565b611532565b6020810151611c7a6060604084015193015151151590565b92611c83610373565b338152336020820152611c94610384565b9283526020830184905260408301526001600160a01b031690813b156101a3575f91611cd69160405194858094819363ebebcab760e01b835260048301611b92565b03925af19081611cf9575b50611cf657611cee611bc8565b906110c75750565b50565b80611b355f611d0793610352565b5f611ce1565b611d3091925060203d602011611d37575b611d288183610352565b810190611b62565b905f611c43565b503d611d1e565b90611d556001600160a01b036040610cd2366121d3565b611d71611d60611f8d565b9260016020820151940190516116b4565b82516001600160401b03811161031757611d8f81610b4c8454611152565b6020601f8211600114611dbe5781906113b69394955f92610ba25750508160011b915f199060031b1c19161790565b601f19821690611dd1845f5260205f2090565b915f5b818110611df2575095836001959697106113ef57505050811b019055565b9192602060018192868b015181550194019201611dd4565b610cee610b1a6101dc925161236f565b903590601e19813603018212156101a357018035906001600160401b0382116101a3576020019181360383136101a357565b91908260409103126101a357604051611e64816102fc565b60208082948035611e7481610393565b8452013591611e8283610393565b0152565b90815f8237015f815290565b611e9a612743565b5f80356001600160e01b031916808252602092909252604090206001600160a01b03905416908115611f45575b506001600160a01b03811615611f02575f809160405180611ee88136611e86565b03915af4611ef4611bc8565b90156110c757602081519101f35b60405162461bcd60e51b815260206004820152601b60248201527a111a585b5bdb990e88199d5b98dd1a5bdb881b9bdd08199bdd5b99602a1b6044820152606490fd5b611f6b91506001611f54612743565b019063ffffffff60e01b165f5260205260405f2090565b546001600160a01b03165f611ec7565b91908203918211611f8857565b6115d7565b60408051611f9b8282610352565b601b81527a185b991c9bdb5959184b9cdd1bdc9859d94b9bdccb9ad95c9b995b602a1b60208201528151611fe581611fd76020820180956116a2565b03601f198101835282610352565b5190205f198101908111611f885761200a825192602084019283526020845283610352565b9051902060ff191690565b60ff811690601f82116120445760405191612031604084610352565b6020808452838101919036833783525290565b632cd44ac360e21b5f5260045ffd5b61206390604051918280926116a2565b03902090565b604051612077606082610352565b602681527f616e64726f6d6564612e73746f726167652e6f732e6b65726e656c2e76657269602082015265666961626c6560d01b60408201526040516120c581611fd76020820180956116a2565b5190205f198101908111611f88576040519061200a826120ee6020820193849190602083019252565b03601f198101845283610352565b612135905f80600161210c612069565b019461211c336116838689611576565b60208151910182855af19261212f611bc8565b50611576565b80546001600160a01b0319169055156101a357565b60405190606082018281106001600160401b0382111761031757604052815f81525f6020820152604080519161217f836102fc565b5f83525f60208401520152565b9060248201809211611f8857565b91908201809211611f8857565b909392938483116101a35784116101a3578101920390565b906040828203126101a3576101dc91611e4c565b6121db61214a565b506121e4612620565b9060248110612293576001600160a01b0361221060036122026127ba565b01546001600160a01b031690565b16801561228e5733036122935763beb2afbd60e01b3660031901356001600160e01b03191601612293573660231901356122498161218c565b821061228e57612282918161227361226c61226661227a9561218c565b84611f7b565b918261219a565b915f6121a7565b8101906121bf565b60018252604082015290565b505090565b5090565b604051906122a6604083610352565b60068252651ad95c9b995b60d21b6020830152565b6040516352d1902d60e01b81529290916020846004816001600160a01b0387165afa5f948161233b575b5061230657634c9c8ce360e01b5f526001600160a01b03831660045260245ffd5b90915f516020612b0d5f395f51905f52840361232757610382929350612643565b632a87526960e21b5f52600484905260245ffd5b9094506020813d602011612367575b8161235760209383610352565b810103126101a35751935f6122e5565b3d915061234a565b6040805161237d8282610352565b600581526430b237b23160d91b602082015280825161239b8161031c565b526001600160a01b03906123ae906125fd565b16916020825180946335b41c4b60e11b825281806123cf86600483016101cb565b03915afa928315611b3b575f9361241a575b506001600160a01b038316156123f657505090565b906124036119c7926126e2565b905162461bcd60e51b8152918291600483016101cb565b61243491935060203d602011611d3757611d288183610352565b915f6123e1565b6001600160a01b038116151580612515575b156124d3576040519061029d808301918383106001600160401b0384111761031757839261249b9261287085396001600160a01b0390911681526040602082018190525f9082015260600190565b03905ff08015611b3b576101dc6124c66124b3612069565b6001600160a01b03909316928390611576565b805460ff19166001179055565b60405162461bcd60e51b815260206004820152601a602482015279496d706c656d656e746174696f6e20686173206e6f20636f646560301b6044820152606490fd5b50803b151561244d565b610382906120ee61253d9493600160405196879460208601906116a2565b600160fe1b815201906116a2565b6040519061255a604083610352565b600382526276667360e81b6020830152565b6001600160a01b03600361257e6127ba565b01541690565b611fd76125c66125e460246101dc95966125a5604051916020830190611b77565b604081526125b4606082610352565b805160405194859260208401906116a2565b90815263414d504360e01b6020820152036004810184520182610352565b60208560405196879583870137840101905f82526116a2565b6001600160a01b039061261b906002612614611f8d565b01906116b4565b541690565b61262861214a565b905f8252336020830152604082013381515260203391510152565b90813b156126c1575f516020612b0d5f395f51905f5280546001600160a01b0319166001600160a01b0384169081179091557fbc7cd75a20ee27fd9adebab32041f755214dbc6bffa90cc0225b39da2e5c2d3b5f80a28051156126a957611cf69161279d565b5050346126b257565b63b398979f60e01b5f5260045ffd5b50634c9c8ce360e01b5f9081526001600160a01b0391909116600452602490fd5b906103826120ee9260405193849172020a227902727aa10282aa12624a9a422a21d1606d1b602084015260338301906116a2565b908151815190818114938461272d575b5050505090565b602092939450820120920120145f808080612726565b604051612751606082610352565b602481527f616e64726f6d6564612e73746f726167652e7374642e6d73672e7369676e61746020820152637572657360e01b60408201526040516120c581611fd76020820180956116a2565b5f806101dc93602081519101845af46127b4611bc8565b91612811565b6040516127c8606082610352565b602181527f616e64726f6d6564612e73746f726167652e7374642e61646f2e64656661756c6020820152601d60fa1b60408201526040516120c581611fd76020820180956116a2565b90612835575080511561282657602081519101fd5b63d6bda27560e01b5f5260045ffd5b81511580612866575b612846575090565b639996b31560e01b5f9081526001600160a01b0391909116600452602490fd5b50803b1561283e56fe608060405261029d8038038061001481610168565b92833981016040828203126101645781516001600160a01b03811692909190838303610164576020810151906001600160401b03821161016457019281601f8501121561016457835161006e610069826101a1565b610168565b9481865260208601936020838301011161016457815f926020809301865e86010152823b15610152577f360894a13ba1a3210667c828492db98dca3e2076cc3735a920a3ca505d382bbc80546001600160a01b031916821790557fbc7cd75a20ee27fd9adebab32041f755214dbc6bffa90cc0225b39da2e5c2d3b5f80a282511561013a575f8091610122945190845af43d15610132573d91610113610069846101a1565b9283523d5f602085013e6101bc565b505b6040516082908161021b8239f35b6060916101bc565b50505034156101245763b398979f60e01b5f5260045ffd5b634c9c8ce360e01b5f5260045260245ffd5b5f80fd5b6040519190601f01601f191682016001600160401b0381118382101761018d57604052565b634e487b7160e01b5f52604160045260245ffd5b6001600160401b03811161018d57601f01601f191660200190565b906101e057508051156101d157602081519101fd5b63d6bda27560e01b5f5260045ffd5b81511580610211575b6101f1575090565b639996b31560e01b5f9081526001600160a01b0391909116600452602490fd5b50803b156101e956fe60806040527f360894a13ba1a3210667c828492db98dca3e2076cc3735a920a3ca505d382bbc545f9081906001600160a01b0316368280378136915af43d5f803e156048573d5ff35b3d5ffdfea2646970667358221220869fb0a3232fd7b51b66ee68c4bd4b961fe5ac1c3563daac735ec5c27d9415b664736f6c634300081e0033360894a13ba1a3210667c828492db98dca3e2076cc3735a920a3ca505d382bbcf0c57e16840df040f15088dc2f81fe391c3923bec73e23a9662efc9c229c6a00a26469706673582212209d6474ec5841b02f9e87c96c1a30f434bf42cd3e8470cad4afda940a2c7b0ac464736f6c634300081e0033f0c57e16840df040f15088dc2f81fe391c3923bec73e23a9662efc9c229c6a00","linkReferences":{}},"methodIdentifiers":{"UPGRADE_INTERFACE_VERSION()":"ad3cb1cc","ado_type()":"045ffa79","ampReceive((bytes,uint256,(address,address)))":"ebebcab7","batch_messages((bytes,uint8)[])":"4fc8b0fe","chain_name()":"029617f2","get_env((string))":"568eb6bb","get_key_address((string))":"fd7687ef","implementation()":"5c60da1b","init_empty_slot(address)":"4461dd0c","initialize((address,string))":"3744dd83","instantiate_ado((string),bytes)":"e031428d","instantiate_ado(address,bytes)":"9567e7e3","instantiate_empty_slot((string),bytes)":"62ca2d78","is_verified(address)":"eeb339f8","migrate_ado(address,string,string,bytes)":"8d980970","proxiableUUID()":"52d1902d","send((string,bytes,uint256,(bool)))":"9d0978cd","set_env((string,string))":"d891adaf","tmp_deployer(address)":"6039c55b","unset_env((string))":"c55c2b93","update_chain_name((string))":"c1ada27f","upgradeToAndCall(address,bytes)":"4f1ef286","upsert_key_address((string,address))":"470e6c4c","version()":"54fd4d50"},"id":81}